{
  "contractName": "Pedersen",
  "abi": [
    {
      "inputs": [
        {
          "name": "amount",
          "type": "uint256"
        }
      ],
      "payable": false,
      "stateMutability": "nonpayable",
      "type": "constructor"
    },
    {
      "constant": false,
      "inputs": [
        {
          "name": "target",
          "type": "address"
        },
        {
          "name": "amount",
          "type": "uint256"
        }
      ],
      "name": "transfer",
      "outputs": [],
      "payable": false,
      "stateMutability": "nonpayable",
      "type": "function"
    },
    {
      "constant": true,
      "inputs": [
        {
          "name": "p0",
          "type": "uint256[2]"
        },
        {
          "name": "p1",
          "type": "uint256[2]"
        }
      ],
      "name": "ecAdd",
      "outputs": [
        {
          "name": "p2",
          "type": "uint256[2]"
        }
      ],
      "payable": false,
      "stateMutability": "view",
      "type": "function"
    }
  ],
  "bytecode": "0x6060604052341561000f57600080fd5b60405160208061035883398101604052808051906020019091905050806000803373ffffffffffffffffffffffffffffffffffffffff1673ffffffffffffffffffffffffffffffffffffffff16815260200190815260200160002081905550506102da8061007e6000396000f30060606040526004361061004c576000357c0100000000000000000000000000000000000000000000000000000000900463ffffffff168063a867d0ca14610051578063a9059cbb146100ff575b600080fd5b341561005c57600080fd5b6100c1600480806040019060028060200260405190810160405280929190826002602002808284378201915050505050919080604001906002806020026040519081016040528092919082600260200280828437820191505050505091905050610141565b6040518082600260200280838360005b838110156100ec5780820151818401526020810190506100d1565b5050505090500191505060405180910390f35b341561010a57600080fd5b61013f600480803573ffffffffffffffffffffffffffffffffffffffff169060200190919080359060200190919050506101a5565b005b610149610287565b60405183518152602084015160208201528251604082015260208301516060820152604081608083600060066107d05a03f180600081146101895761018e565b608083fd5b508151835260208201516020840152505092915050565b60008060003373ffffffffffffffffffffffffffffffffffffffff1673ffffffffffffffffffffffffffffffffffffffff16815260200190815260200160002054141515156101f357600080fd5b60008060008473ffffffffffffffffffffffffffffffffffffffff1673ffffffffffffffffffffffffffffffffffffffff16815260200190815260200160002054141561028257806000808473ffffffffffffffffffffffffffffffffffffffff1673ffffffffffffffffffffffffffffffffffffffff16815260200190815260200160002081905550610283565b5b5050565b60408051908101604052806002905b600081526020019060019003908161029657905050905600a165627a7a72305820e90dc33ca0e4df833f5462be6096fb83d30c1b835948de2877d042aa43b7f3640029",
  "source": "pragma solidity ^0.4.19;\r\n\r\n\r\ncontract Pedersen {\r\n\r\n    mapping (address => uint) balances;\r\n\r\n    function Pedersen(uint amount) public {\r\n        balances[msg.sender] = amount;\r\n    }\r\n\r\n    function transfer(address target, uint amount) public {\r\n        require(balances[msg.sender] != 0x0);\r\n\r\n        if(balances[target] == 0) {\r\n            balances[target] = amount;\r\n        } else {\r\n            // target ec add amount\r\n//  https://medium.com/@bekahoxoo/precompiles-solidity-e5d29bd428c4\r\n        }\r\n\r\n\r\n        // balances[msg.sender] ec add amount.neg\r\n\r\n    }\r\n\r\n//Base EC Functions\r\n    function ecAdd(uint256[2] p0, uint256[2] p1)\r\n        public constant returns (uint256[2] p2)\r\n    {\r\n        assembly {\r\n            //Get Free Memory Pointer\r\n            let p := mload(0x40)\r\n            \r\n            //Store Data for ECAdd Call\r\n            mstore(p, mload(p0))\r\n            mstore(add(p, 0x20), mload(add(p0, 0x20)))\r\n            mstore(add(p, 0x40), mload(p1))\r\n            mstore(add(p, 0x60), mload(add(p1, 0x20)))\r\n            \r\n            //Call ECAdd\r\n            let success := call(sub(gas, 2000), 0x06, 0, p, 0x80, p, 0x40)\r\n            \r\n            // Use \"invalid\" to make gas estimation work\r\n \t\t\tswitch success case 0 { revert(p, 0x80) }\r\n \t\t\t\r\n \t\t\t//Store Return Data\r\n \t\t\tmstore(p2, mload(p))\r\n \t\t\tmstore(add(p2, 0x20), mload(add(p,0x20)))\r\n        }\r\n    }\r\n\r\n}",
  "sourcePath": "C:\\work\\pedersen-commitments\\contracts\\Pedersen.sol",
  "compiler": {
    "name": "solc",
    "version": "0.4.19+commit.c4cbbb05.Emscripten.clang"
  },
  "schemaVersion": "1.0.1",
  "updatedAt": "2018-02-12T05:46:44.494Z"
}